{
    "_format": "hh-sol-artifact-1",
    "contractName": "BatchTransfer",
    "sourceName": "contracts/BatchTransfer.sol",
    "abi": [
        {
            "inputs": [
                {
                    "internalType": "address payable[]",
                    "name": "recipients",
                    "type": "address[]"
                },
                {
                    "internalType": "uint256[]",
                    "name": "amounts",
                    "type": "uint256[]"
                }
            ],
            "name": "transferETH",
            "outputs": [],
            "stateMutability": "payable",
            "type": "function"
        }
    ],
    "bytecode": "0x608060405234801561001057600080fd5b506106c8806100206000396000f3fe60806040526004361061001e5760003560e01c8063a11fde3714610023575b600080fd5b61003d60048036038101906100389190610347565b61003f565b005b8051825114610083576040517f08c379a000000000000000000000000000000000000000000000000000000000815260040161007a906103f9565b60405180910390fd5b60005b82518110156101ec578181815181106100c8577f4e487b7100000000000000000000000000000000000000000000000000000000600052603260045260246000fd5b6020026020010151341015610112576040517f08c379a000000000000000000000000000000000000000000000000000000000815260040161010990610419565b60405180910390fd5b82818151811061014b577f4e487b7100000000000000000000000000000000000000000000000000000000600052603260045260246000fd5b602002602001015173ffffffffffffffffffffffffffffffffffffffff166108fc8383815181106101a5577f4e487b7100000000000000000000000000000000000000000000000000000000600052603260045260246000fd5b60200260200101519081150290604051600060405180830381858888f193505050501580156101d8573d6000803e3d6000fd5b5080806101e490610534565b915050610086565b505050565b60006102046101ff8461045e565b610439565b9050808382526020820190508285602086028201111561022357600080fd5b60005b85811015610253578161023988826102c9565b845260208401935060208301925050600181019050610226565b5050509392505050565b600061027061026b8461048a565b610439565b9050808382526020820190508285602086028201111561028f57600080fd5b60005b858110156102bf57816102a58882610332565b845260208401935060208301925050600181019050610292565b5050509392505050565b6000813590506102d881610664565b92915050565b600082601f8301126102ef57600080fd5b81356102ff8482602086016101f1565b91505092915050565b600082601f83011261031957600080fd5b813561032984826020860161025d565b91505092915050565b6000813590506103418161067b565b92915050565b6000806040838503121561035a57600080fd5b600083013567ffffffffffffffff81111561037457600080fd5b610380858286016102de565b925050602083013567ffffffffffffffff81111561039d57600080fd5b6103a985828601610308565b9150509250929050565b60006103c06023836104b6565b91506103cb826105ec565b604082019050919050565b60006103e36017836104b6565b91506103ee8261063b565b602082019050919050565b60006020820190508181036000830152610412816103b3565b9050919050565b60006020820190508181036000830152610432816103d6565b9050919050565b6000610443610454565b905061044f8282610503565b919050565b6000604051905090565b600067ffffffffffffffff821115610479576104786105ac565b5b602082029050602081019050919050565b600067ffffffffffffffff8211156104a5576104a46105ac565b5b602082029050602081019050919050565b600082825260208201905092915050565b60006104d2826104d9565b9050919050565b600073ffffffffffffffffffffffffffffffffffffffff82169050919050565b6000819050919050565b61050c826105db565b810181811067ffffffffffffffff8211171561052b5761052a6105ac565b5b80604052505050565b600061053f826104f9565b91507fffffffffffffffffffffffffffffffffffffffffffffffffffffffffffffffff8214156105725761057161057d565b5b600182019050919050565b7f4e487b7100000000000000000000000000000000000000000000000000000000600052601160045260246000fd5b7f4e487b7100000000000000000000000000000000000000000000000000000000600052604160045260246000fd5b6000601f19601f8301169050919050565b7f4172726179732073686f756c642068617665207468652073616d65206c656e6760008201527f74682e0000000000000000000000000000000000000000000000000000000000602082015250565b7f4e6f7420656e6f7567682045544820746f2073656e642e000000000000000000600082015250565b61066d816104c7565b811461067857600080fd5b50565b610684816104f9565b811461068f57600080fd5b5056fea2646970667358221220fc876f5205c6359553f3829cbe0c33683b6edb56cb4cb6d9e71ffe8fc0f6057b64736f6c63430008030033",
    "linkReferences": {},
    "deployedLinkReferences": {}
}